:020000040800F2
:1000000060120120AD0200082F680008A15F0008FF
:100010002D680008C1160008658100080000000076
:10002000000000000000000000000000037600084F
:10003000ED1C000800000000AF6B0008057600080A
:10004000C7020008C7020008C7020008C70200086C
:10005000C7020008C7020008C7020008C70200085C
:10006000C7020008C7020008C7020008C70200084C
:10007000C7020008C7020008C7020008C70200083C
:10008000C7020008C7020008C7020008C70200082C
:10009000C7020008C7020008C7020008C70200081C
:1000A000C7020008C7020008C7020008C70200080C
:1000B000C7020008C7020008C7020008C7020008FC
:1000C000C7020008C7020008C7020008C7020008EC
:1000D000C7020008C7020008C7020008C7020008DC
:1000E000C7020008C702000800000000C70200089D
:1000F000C7020008C7020008C7020008C7020008BC
:10010000C702000885710008C7020008C70200087E
:10011000C7020008C7020008C7020008C70200089B
:10012000C7020008C7020008C7020008C70200088B
:10013000C7020008C7020008C7020008C70200087B
:1001400000000000000000000000000000000000AF
:10015000C7020008C702000809180008C702000803
:10016000C7020008C7020008C7020008C70200084B
:10017000C7020008C702000869170008C702000884
:10018000C7020008C7020008C7020008C70200082B
:10019000C7020008C7020008C7020008C70200081B
:1001A000C7020008C7020008C7020008C70200080B
:1001B000C7020008C7020008C7020008C7020008FB
:1001C000C7020008C7020008C7020008C7020008EB
:1001D000C702000831680008C7020008C70200080B
:1001E000C7020008C7020008C7020008C7020008CB
:1001F000C7020008C7020008C7020008C7020008BB
:10020000C7020008C7020008C7020008C7020008AA
:10021000C7020008C7020008C7020008C70200089A
:10022000C7020008C7020008C7020008000000005B
:10023000C7020008C702000800000000C70200084B
:10024000C7020008C7020008C7020008C70200086A
:10025000C7020008C7020008C7020008C70200085A
:10026000C7020008C7020008C7020008C70200084A
:10027000C7020008C7020008C7020008000000000B
:10028000C7020008C7020008C702000800000000FB
:1002900000000000C7020008DFF80CD000F068FA88
:1002A000004800472DCA0008601201200648804718
:1002B00006480047FEE7FEE7FEE7FEE7FEE7FEE74B
:1002C000FEE7FEE7FEE7FEE7257700089902000853
:1002D0002DE9F05F0546002092469B46884606467B
:1002E000814640241BE0284641464746224600F00E
:1002F00076F853465A46C01A914110D31146184613
:10030000224600F05DF82D1A67EB01084F462246A1
:100310000120002100F054F817EB00094E41201E87
:10032000A4F10104DFDC484631462A464346BDE8D5
:10033000F09F40EA01039B0703D009E008C9121FA0
:1003400008C0042AFAD203E011F8013B00F8013B8F
:10035000521EF9D27047D2B201E000F8012B491EBB
:10036000FBD270470022F6E710B513460A46044652
:100370001946FFF7F0FF204610BD30B504460020B7
:10038000034600E05B1C934203D2E05CCD5C401B63
:10039000F8D030BD30B50B460146002020220124A4
:1003A00009E021FA02F59D4205D303FA02F5491B43
:1003B00004FA02F52844151EA2F10102F1DC30BD59
:1003C000202A04DB203A00FA02F100207047914015
:1003D000C2F1200320FA03F3194390407047202A0A
:1003E00004DB203A21FA02F00021704721FA02F3DF
:1003F000D040C2F1200291400843194670472DE9D0
:10040000FE4F804681EA0300C00F0C46009021F0A9
:10041000004123F00045B8EB0200A94105D2404657
:10042000214690461C460B46024623F000401043EE
:1004300047D0270DC7F30A00C3F30A510290401AB0
:10044000019040286BDAC3F3130040F4801B00983E
:10045000924620B10023D2EB030A63EB0B0B019809
:100460005946C0F140025046FFF7AAFF06460D4626
:1004700050465946019A00F08DF910EB0800614191
:10048000002487EA115284EAE7731A4340D0009AA5
:1004900062B3019A012A4FEA075215DC001B61EB97
:1004A00002014FF0004202EA0752CDE90042001C6F
:1004B00041F5801132462B4600F08DF903B0BDE8BE
:1004C000F08F40462146F9E7001B61EB0201001C5A
:1004D00041F5801300185B412018A2F5001747EB87
:1004E000030140EAD570B6196D4111E06D084FEA7D
:1004F000360645EAC0754FEA0752001B61EB020160
:10050000001C41F5801149084FEA300000195141A3
:1005100032462B4603B0BDE8F04F00F04DB90098CD
:10052000012240000023D0EB020263EBE07300984D
:1005300021464FEAE074B8EB000061EB0401E9E703
:1005400083F000435BE781F0004158E72DE9FE4F5F
:1005500081EA030404F0004421F0004100944FF0CC
:10056000000B23F0004350EA01045ED052EA03047A
:100570005BD0C3F30A54C1F30A552C44A4F2F334FC
:100580000194A0FB0254C1F3130141F48011C3F3A1
:10059000130343F4801301FB024400FB034E840A5F
:1005A000970A44EA815447EA8357A4FB07680295F7
:1005B0008D0A05FB07854FEA932C04FB0C54270595
:1005C000029D4FEA065847EA1637B5EB08056EEB71
:1005D000070C870E920E47EA811742EA8312A7FBA7
:1005E0000201B6EB0B0164EB00042B0D43EA0C3364
:1005F0005E1844EB1C50DA465146E7FB0201C5F396
:1006000013044FEA0B3343EA14534FEA0432019CBC
:1006100043EA0603A4F10C040294009CCDE900B463
:1006200000F0D9F803B0BDE8F08F00200146F9E7EB
:100630002DE9F04D81EA030404F0004B21F0004560
:1006400014464FF0000A23F0004150EA050220D082
:1006500054EA01021DD0C5F30A570246C5F313033D
:10066000C1F31300C1F30A5640F4801543F480131C
:10067000A7EB0608101BD64608F2FD3873EB050001
:1006800002D308F1010801E092185B41B8F1000FB4
:1006900003DA00200146BDE8F08D00204FF4801100
:1006A000064684460EE0171B73EB050705D3121BA5
:1006B00063EB050306434CEA010C49084FEA30009E
:1006C00092185B4150EA0107EDD152EA030012D0C3
:1006D00082EA040083EA0501084305D0101BAB4100
:1006E00006D20122002306E000224FF0004302E080
:1006F0006FF0010253101AEB06004CEB085110EB9F
:100700000A0041EB0B01BDE8F04D00F055B8C1F314
:100710000A52C1F3130140F2FF3341F480119A42AF
:1007200002DA00200146704740F233439A42A2F2B7
:10073000334202DC5242FFF752BEFFF741BE0000D7
:1007400030B5041E71F1000404DB4FF00044404258
:1007500064EB0101141E73F1000405DB1C464FF02D
:100760000043524263EB0403994208BF904230BDFC
:10077000064C074D06E0E06840F0010394E80700EE
:1007800098471034AC42F6D3FFF78AFD744B01084A
:10079000944B0108202A06DBCB17203A41FA02F0DD
:1007A00043EAE07306E041FA02F3D040C2F12002CE
:1007B000914008431946704710B5141E73F10004A8
:1007C00008DA401C41F1000192185B411A4301D143
:1007D00020F0010010BD2DE9F04D92469B4611B16D
:1007E000B1FA81F202E0B0FA80F220329046FFF7CF
:1007F000E7FD04460F4640EA0A0041EA0B01534672
:100800005A46084313D0114653EA010019D0C8F1E3
:1008100040025046FFF7E3FD05460E465046594656
:100820004246FFF7CDFD084305D0012004E02046F5
:100830003946BDE8F08D0020054346EAE0762C43BA
:1008400037430A986305E40AA0EB08000022FD0A7A
:1008500044EA47540A3002D500200146E9E7010581
:1008600010196941DDE9084500196941BDE8F04DFD
:10087000A2E770B58C1810F8015B15F0070301D1E1
:1008800010F8013B2A1106D110F8012B03E010F8F3
:10089000016B01F8016B5B1EF9D12B0705D4002316
:1008A000521E0DD401F8013BFAE710F8013BCB1AB8
:1008B000921C03E013F8015B01F8015B521EF9D5AD
:1008C000A142D8D3002070BD2DE9F04F86B09DF82D
:1008D000587000910392002F059318BF0123109CBC
:1008E00004FB033304930F9D14BF2F460127019788
:1008F000BDF844305B0800F09F80DDF850B0139ADB
:1009000002EB83030293DDF848E0039F5FEA9E0851
:10091000DDF800C057F8046B57F8043B03971A46FC
:10092000314622D05CF81E705CF8049B50F804AB92
:100930002AFB096650F8045B2AFB071150F804AB48
:1009400025FB07225CF81E7025FB09335CF8049B2D
:100950002AFB09662AFB071150F8045B25FB0933C3
:10096000B8F1010825FB0722DCD10EF003078FB197
:100970003CF91E803CF902AB30F9025B0AFB0566CC
:1009800030F9029B09FB0A3308FB0511013F09FB03
:100990000822EDDCDDF84CA0159F3AF9024B57F820
:1009A00004CB5BF8045BC4F1150999EA040940F330
:1009B000C8804FEA46064FEA410156FB05C651FB87
:1009C00005C146FA04F641FA04F13AF9024B57F828
:1009D00004CB5BF8045BC4F1150999EA040940F300
:1009E00099804FEA43034FEA420253FB05C352FB8F
:1009F00005C243FA04F342FA04F206F30706DDF8EF
:100A00000490179CDDF810802670A04401F30701C4
:100A100088F8001003F3070304F8093002F3070213
:100A200008F8092004EB49021792CDF84CA0029C6B
:100A30001597A2457FF467AF119B13F0010354D0C3
:100A4000BDF848E0039BDDF800C019685FEA9E0727
:100A50000CEB4E040E4615D05CF81E505CF8048B6F
:100A600050F804AB50F8043B2AFB08662AFB05113A
:100A70005CF81EA05CF8048B23FB086623FB0A11BC
:100A8000013FE9D11EF003070BD03CF81E303CF8C3
:100A9000029B30F902AB19FB0A66013F13FB0A11F6
:100AA000F3DCDDF84CA0159FBAF90040D7F800C080
:100AB000DBF80050C4F1150999EA040958DD4FEA42
:100AC00046064FEA410156FB05C651FB05C146FAF1
:100AD00004F641FA04F106F30706179A049C16700F
:100AE00001F307011155019B1A441199169B109CA3
:100AF00033B10F9B04F1020003FB1100104406E028
:100B0000A2EB0100059A04F1020402FB040006B006
:100B1000BDE8F08F002C42DD4FF0010909FA04F91D
:100B20004FEAA90953FB05934FEA430343FA04F341
:100B3000634452FB05924FEA420242FA04F26244D5
:100B40005BE7002C3CDD4FF0010909FA04F94FEA9C
:100B5000A90956FB05964FEA460646FA04F666448E
:100B600051FB05914FEA410141FA04F161442CE740
:100B7000002C36DD4FF0010909FA04F94FEAA90902
:100B800056FB05964FEA460646FA04F6664451FBC4
:100B900005914FEA410141FA04F161449BE7C4F138
:100BA000010903FA09F303F31F0353FB15F302FAD8
:100BB00009F202F31F0252FB15F2634462441CE780
:100BC000C4F1010906FA09F606F31F0656FB15F6ED
:100BD00001FA09F101F31F0151FB15F1664461446B
:100BE000F3E6C4F1010906FA09F606F31F0656FBFF
:100BF00015F601FA09F101F31F0151FB15F16644E5
:100C0000614468E7000000000000000000000000F0
:100C10002DE9F04F99B014901391169212932998E0
:100C200000F00303032B0CBF0126002617960328B0
:100C30000CBF01260026189610F00200259B002804
:100C400014BF18460120109026980CBF06460126B6
:100C50001196DDE92C04002C18BF20462C90269814
:100C6000012840F3BE814FEA4303299C14F0020F90
:100C700001D14FF0020315934FF00008CDF83480F6
:100C8000DDF834B0239A02EB8B02B2F90030B2F9EE
:100C90000240CDE90434229A02EBCB02D2E90012E1
:100CA000CDE902122B9A02EBCB02D2E90012CDE978
:100CB0000012002BCCBF00204FF0FF30152BC8BF17
:100CC0000120002CCCBF00214FF0FF31152CC8BFF4
:100CD0000121CDE906012D9B002B00F09782289B76
:100CE000002B40F0BB821A461846169901EBCB0147
:100CF000D1E9003403441444CDE90934129A24980C
:100D000018992A9B00291CBF0332D218DDF8509095
:100D10000B92401000F044810F930E900B9B279F85
:100D2000119A2C9EDDE909CEE246F34613440C935A
:100D30005FEA271800F0948059F807502FFA85F4DD
:100D400056F8040B2FFA95F556F8041B24FB00AA5D
:100D500025FB01AA56F8042B56F8043B24FB02BBE2
:100D600059F8044B25FB03BB2FFA84F52FFA94F4B2
:100D700025FB00CC56F8040B25FB02EE59F8075072
:100D800024FB01CC24FB03EE2FFA85F42FFA95F512
:100D900056F8041B24FB00AA56F8042B25FB01AAD5
:100DA00056F8043B24FB02BB59F8044B25FB03BB5C
:100DB0002FFA84F52FFA94F425FB00CC25FB02EEE4
:100DC00059F8075024FB01CC56F8040B24FB03EE22
:100DD0002FFA85F42FFA95F556F8041B24FB00AA88
:100DE00056F8042B25FB01AA56F8043B24FB02BB52
:100DF00059F8044B25FB03BB2FFA84F52FFA94F422
:100E000025FB00CC25FB02EE56F8040B24FB01CC9D
:100E100059F8075024FB03EE2FFA85F42FFA95F5C5
:100E200056F8041B24FB00AA56F8042B25FB01AA44
:100E300056F8043B24FB02BB59F8044B25FB03BBCB
:100E40002FFA84F52FFA94F425FB00CC25FB02EE53
:100E5000B8F1010824FB01CC24FB03EE3FF76CAF93
:100E600017F00F0046D0C7F38108B8F1000F26D065
:100E700059F807502FFA85F42FFA95F556F8040B18
:100E800056F8041B24FB00AA56F8042B25FB01AAE4
:100E900056F8043B24FB02BB59F8044B25FB03BB6B
:100EA0002FFA84F52FFA94F425FB00CC25FB02EEF3
:100EB00024FB01CC24FB03EEB8F10108D8DC17F0C9
:100EC0000308B8F1000F15D0279836F9023B36F920
:100ED000025B99F9001013FB01CC15FB01EE19F927
:100EE000001013FB01AA15FB01BB09F10109B8F1C0
:100EF0000108EADC0B9D2E46179868B10F9A901EE8
:100F000009DC0C9CC2F1020204EB42020C922A9A08
:100F1000104405F102050F9000980299049A069B6F
:100F20000C9F002B40F0C9804FEA4C0C4FEA4A0A54
:100F30005CFB010C5AFB010A4CFA02FC4AFA02FA69
:100F40000CF3070C0AF3070A86F800C087F800A024
:100F500001980399059A079BDDF84080002B40F02B
:100F6000D4804FEA4E0E4FEA4B0B5EFB010E5BFB4B
:100F7000010B4EFA02FE4BFA02FB0EF3070E0BF3C7
:100F8000070B06F808E007F808B0119B279A05EB55
:100F900043030B9391440E9B013B0E937FF4BEAE33
:100FA000CDF82090249B13F0010F40F0D680139BC6
:100FB000279A03EB42031393129B159A134412933F
:100FC0002D9B23B12C9B279A03EB82032C930D9A24
:100FD000269B4FEA630302F101020D9293423FF711
:100FE0004FAE269D15F0010560D0DDF8A880189D54
:100FF000129E002D1CBF033646442499002955DD5E
:10100000CDF83C80169D269FA7F1010705EB870CC4
:10101000DCF800C0229B03EB870424682B9B03EBC6
:1010200087000068239B03EB4707B7F90070289AF5
:10103000002FCCBF4FF000094FF0FF39152FC8BF6C
:101040004FF00109149DDDF89CB0BBF1000FE6469E
:101050000CDDDDF84C8015F9013B18F901ABA3EB71
:1010600002030AFB03EEBBF1010BF4DCB9F1000F44
:1010700040F064814FEA4E0E5EFB040E4EFA07FE0E
:101080000EF3070E86F800E0299B13F0020F11D033
:1010900013F0010F05D00F9B013B02D12A9B06F1F3
:1010A000020606F101060F930139CCDC002019B0CD
:1010B000BDE8F08F269B1E44F6E7013314D04FF0B5
:1010C000010303FA02F34FEAA3035CFB013C4FEA7E
:1010D0004C0C4CFA02FC84445AFB013A4FEA4A0A8F
:1010E0004AFA02FA82442BE7C2F101030CFA03FC2C
:1010F0000CF31F0C5CFB11FC0AFA03FA0AF31F0A3B
:101100005AFB11FA844482441AE7013314D04FF099
:10111000010303FA02F34FEAA3035EFB013E4FEA29
:101120004E0E4EFA02FE86445BFB013B4FEA4B0B30
:101130004BFA02FB834420E7C2F101030EFA03FEDF
:101140000EF31F0E5EFB11FE0BFA03FB0BF31F0BDE
:101150005BFB11FB864483440FE7279FDDF820905B
:101160002C9EDDE909CE5FEAA70818D059F8044B98
:1011700056F8040B56F8041B56F8042B56F8043B9B
:101180002FFA84F52FFA94F425FB00CC25FB02EE10
:1011900024FB01CC24FB03EEB8F10108E6DC17F0D8
:1011A0000308B8F1000F0CD036F9023B36F9025BA8
:1011B00019F9011B13FB01CC15FB01EEB8F1010875
:1011C000F2DC00980299049A069B109F0B9E37440C
:1011D000002B40F099804FEA4C0C5CFB010C4CFA60
:1011E00002FC0CF3070C86F800C001980399059ADD
:1011F000079B002B66D14FEA4E0E5EFB010E4EFAA6
:1012000002FE0EF3070E87F800E0D0E61398279F42
:1012100000EB07092C9B032F11DD4FEAA70650F8BE
:10122000041B59F8044B2FFA91F22FFA81F12FFA8F
:1012300094F82FFA84F4A3E81601013EEFDC17F0CE
:1012400003067FF74CAD10F9011B23F8021B19F9B7
:10125000011B23F8021B013EF5DC40E5279E2C9A7A
:101260004FF000031846B11017D0B2E8801600FA0C
:1012700087F000FAA7F000FA89F000FAA9F003FA63
:101280008AF303FAAAF303FA8CF303FAACF30139F5
:10129000EBDCC0F10000C3F1000316F003010BD03A
:1012A000B2F90040A0EB0400B2F90240A3EB040342
:1012B000013902F10402F3DC289A02FB00F003FB7F
:1012C00002F212E5013311D04FF0010303FA02F3E9
:1012D0004FEAA3035EFB013E4FEA4E0E4EFA02FEBA
:1012E00086440EF3070E87F800E060E6C2F10103C2
:1012F0000EFA03FE0EF31F0E5EFB11FE86440EF384
:10130000070E87F800E052E601330DD04FF00103DD
:1013100003FA02F34FEAA3035CFB013C4FEA4C0CD7
:101320004CFA02FC84445CE7C2F101030CFA03FCB2
:101330000CF31F0C5CFB11FC844452E77B1C0DD0AA
:101340004FF0010303FA07F34FEAA3035EFB043EE9
:101350004FEA4E0E4EFA07FE864491E6C7F10103AE
:101360000EFA03FE0EF31F0E5EFB14FE864487E6A4
:101370002DE9F04F99B000BF14901391169212937B
:101380004FF00008CDF83480DDF834B0239A02EB3A
:101390008B02B2F90030B2F90240CDE90434229A4E
:1013A00002EBCB02D2E90012CDE902122B9A02EB3A
:1013B000CB02D2E90012CDE9001213982C9B4FF01A
:1013C0001006046C50F8041B2FFA91F22FFA81F1E9
:1013D0002FFA94F82FFA84F4A3E81601013EF0DC0A
:1013E000289B2C9A4FF0000318464FF01001B2E8EA
:1013F000001700FA88F000FAA8F000FA89F000FA65
:10140000A9F003FA8AF303FAAAF303FA8CF303FAB6
:10141000ACF30139EBDCC0F10000C3F10003289A02
:1014200002FB00F003FB02F2169901EBCB01D1E9BC
:10143000003403441444CDE90934129A4FF00503F3
:1014400002F103021A44DDF850900B924FF03E0770
:101450000F930B9B2C9EDDE909CEE246F34603F188
:1014600001030C934FF00408D9F840502FFA85F48B
:1014700056F8040B2FFA95F556F8041B24FB00AA26
:1014800025FB01AA56F8042B56F8043B24FB02BBAB
:1014900059F8044B25FB03BB2FFA84F52FFA94F47B
:1014A00025FB00CC56F8040B25FB02EED9F8405082
:1014B00024FB01CC24FB03EE2FFA85F42FFA95F5DB
:1014C00056F8041B24FB00AA56F8042B25FB01AA9E
:1014D00056F8043B24FB02BB59F8044B25FB03BB25
:1014E0002FFA84F52FFA94F425FB00CC25FB02EEAD
:1014F000D9F8405024FB01CC56F8040B24FB03EE32
:101500002FFA85F42FFA95F556F8041B24FB00AA50
:1015100056F8042B25FB01AA56F8043B24FB02BB1A
:1015200059F8044B25FB03BB2FFA84F52FFA94F4EA
:1015300025FB00CC25FB02EE56F8040B24FB01CC66
:10154000D9F8405024FB03EE2FFA85F42FFA95F5D5
:1015500056F8041B24FB00AA56F8042B25FB01AA0D
:1015600056F8043B24FB02BB59F8044B25FB03BB94
:101570002FFA84F52FFA94F425FB00CC25FB02EE1C
:10158000B8F1010824FB01CC24FB03EE3FF76CAF5C
:101590000B9D2E460F9A901E09DC0C9CC2F1020294
:1015A00004EB42020C9200F1050005F102050F90D8
:1015B00000980299049A0C9C4FEA4C0C4FEA4A0A94
:1015C0005CFB010C5AFB010A4CFA02FC4AFA02FAD3
:1015D0000CF3070C0AF3070A86F800C084F800A091
:1015E00001980399059A4FEA4E0E4FEA4B0B5EFBAA
:1015F000010E5BFB010B4EFA02FE4BFA02FB0EF3EF
:10160000070E0BF3070B86F8BDE084F8BDB005F1BB
:1016100002030B9309F14009013F7FF41AAFCDF8A3
:101620002090DDF820902C9EDDE909CE4FF01008C7
:1016300059F8044B56F8040B56F8041B56F8042BC3
:1016400056F8043B2FFA84F52FFA94F425FB00CCCE
:1016500025FB02EE24FB01CC24FB03EEB8F10108CC
:10166000E6DC00980299049A0B9E4FEA4C0C5CFB56
:10167000010C4CFA02FC0CF3070C86F800C0019830
:101680000399059A4FEA4E0E5EFB010E4EFA02FEDA
:101690000EF3070E86F8BDE0139B03F1800313934E
:1016A000129B159A03F5BD7312930D9A02F1010274
:1016B0000D92202AFFF668AE002019B0BDE8F08F29
:1016C000FEE710B5806B816C496D022906D00121BF
:1016D00080F83510C16C41F04001C16400F03CFB62
:1016E00010BD10B5816B0C468A6B886C0168CAB15D
:1016F0000A68A36B02F40022DB0706D12AB1C9688D
:10170000E26B01EBC201002207E00A68120319D460
:101710000969E26B01EBC201012200F0EFFCA06B52
:10172000401E0EE00868000302D5606CC86009E046
:101730000868000306D4E26B606C00EB820008616D
:10174000206CA063A06B216C88420BD12068C1681B
:1017500041F00101C16020680068800702D50120C6
:1017600084F8350010BD0000014800F00FBB0000F8
:1017700034FA002070B505F07DFB04F081FF05F020
:101780008FF805F001F905F0EFF8B0F5195F0146A3
:1017900009D0A1F51850423805D00EA006F0E4FC9F
:1017A0004FF0FF3070BD12A006F0DEFC154805F0CA
:1017B00045F84FF496744FF4C8752146284605F055
:1017C000FFF8F02023464FF48C712A4605F046F8C6
:1017D000002070BD4F5632363430204552524F52A1
:1017E0002121212121202049443A25580D0A0000B9
:1017F0004F5632363430204F4B2C49443A307825FE
:10180000580D0A00FAE30008014801F035B800005D
:10181000BCF90020294A016891423AD0274A18327F
:10182000914236D0254A3032914232D0234A483252
:1018300091422ED0214A603291422AD01F4A7832FA
:10184000914226D01D4A9032914222D01B4AA832A2
:1018500091421ED01A4A91421BD0194A1832914225
:1018600017D0174A3032914213D0154A483291426C
:101870000FD0134A603291420BD0114A7832914214
:1018800007D00F4A9032914203D00D4AA8329142BC
:1018900011D1CAB21823103AB2FBF3F26FF3090167
:1018A000032A02F00703074AD25CC26500D9091D6A
:1018B00081650846704721F0FF01F9E710000240FA
:1018C000100402405AE5000830B5224A012301689D
:1018D0009142CAB21BD01F4C1434A14217D01D4CE8
:1018E0002834A14213D01B4C3C34A1420FD0194CD8
:1018F0005034A1420BD0174C6434A14207D0154C90
:101900007834A14203D0134C8C34A1420CD1142161
:10191000114C083AB2FBF1F10F4A803201F01F0579
:1019200004EB8101AB4010E00C4D1824103A0D443B
:10193000B2FBF4F1A82D00D80831094A01F01F04C8
:1019400002EB8101064AA3408032603080E80E003D
:1019500030BD00000854025800580258F0FBFDBF8B
:101960000008024010B50279531E072B2DD8174CE2
:101970000168A1421BD0154C1434A14217D0134C5E
:101980002834A14213D0114C3C34A1420FD00F4C4B
:101990005034A1420BD00D4C6434A14207D00B4C03
:1019A0007834A14203D0094C8C34A14203D10849B8
:1019B000074C443102E00749064C443104EB8202F3
:1019C000C0E91B2101219940416710BD085402580C
:1019D000FC580258FC08024010B583694FF0C074EF
:1019E000826A0146002053B1B3F5005F15D072B191
:1019F000012A0CD0022A0AD0032A09D104E01AB124
:101A0000012A06D0022A03D1C96AC90100D50120E2
:101A100010BDC96AA142FAD010BD002AF7D0012A30
:101A2000F2D0022AF3D0032AF3D010BD30B5254DF1
:101A30000468AC4238D0234D1835AC4234D0214D27
:101A40003035AC4230D01F4D4835AC422CD01D4D06
:101A50006035AC4228D01B4D7835AC4224D0194DAE
:101A60009035AC4220D0174DA835AC421CD0164D55
:101A7000AC4219D0144D1835AC4215D0124D30354A
:101A8000AC4211D0104D4835AC420DD00E4D6035F2
:101A9000AC4209D00C4D7835AC4205D00A4D90359A
:101AA000AC4201D0084DA83563608368402B0368C1
:101AB00003D099600068C26030BD9A600068C16060
:101AC00030BD000010000240100402402DE9F04F2C
:101AD000804E804FDFF8FC911836DFF8F8A14837C8
:101AE0000468856D0AF1300ADFF8ECB14C45DFF887
:101AF000ECC1DFF8ECE16DD0B4426BD0544569D055
:101B0000BC4267D0DFF8D081A8F11808444561D005
:101B10005C455FD064455DD074455BD0DFF8C4811F
:101B2000444557D0DFF8BC8108F11808444551D02E
:101B3000DFF8B08108F1300844454BD0DFF8A481CC
:101B400008F14808444545D0DFF8988108F160085D
:101B500044453FD0DFF88C8108F17808444539D0FE
:101B6000DFF8808108F19008444533D0DFF87481B4
:101B700008F1A80844452DD0DFF86C81444529D0F0
:101B8000DFF8648108F11408444523D0DFF8588158
:101B900008F1280844451DD0DFF84C8108F13C08C5
:101BA000444517D0DFF8408108F15008444511D072
:101BB000DFF8348108F1640844450BD0DFF8288150
:101BC00008F17808444505D0DFF81C8108F18C083D
:101BD000444509D1D0E91948C4F80480C46E1CB149
:101BE000D0E91C48C4F8048004684C452ED0B442A7
:101BF0002CD054452AD0BC4228D0374E183EB4428F
:101C000024D05C4522D0644520D074451ED0354E8A
:101C1000B4421BD0334E1836B44217D0314E303652
:101C2000B44213D02F4E4836B4420FD02D4E6036FA
:101C3000B4420BD02B4E7836B44207D0294E9036A2
:101C4000B44203D0274EA836B44215D190F85C6058
:101C50003F2406F01F06B440AC600468256825F4F4
:101C6000802525602EE09A600068C160BDE8F08F95
:101C700099600068C260F9E71B4EB4421BD01A4E4F
:101C80001436B44217D0184E2836B44213D0164E2C
:101C90003C36B4420FD0144E5036B4420BD0124EE4
:101CA0006436B44207D0104E7836B44203D00E4E9C
:101CB0008C36B442DAD190F85C60012406F01F063D
:101CC000B4406C60046863608368402B0368CFD1C4
:101CD000C9E700001000024088000240A000024056
:101CE000B80002401004024008540258704772B60F
:101CF000FEE770B590F83440049D012C12D0012409
:101D0000022680F8356043EA0543056841EA02414E
:101D100000226B620368196280F8354080F8342035
:101D2000104670BD022070BD10B590F83410012926
:101D300010D0012180F83410022280F8352050F8AC
:101D4000342B0023146844F00404146041700370C1
:101D5000184610BD022010BD7047000010B501F0FC
:101D600067FD094C6168401AB0F57A7F06D301F02F
:101D70005FFD606000216078A07061700121607873
:101D8000401C6070217010BD140000202DE9F0414E
:101D900004460068234F0426056969070BD5466190
:101DA000E06C40F00200E06484F83560A06C0765E8
:101DB000A06C00F01FFCA8070DD521680220486127
:101DC000E06C40F00100E06484F83560A06C0765C9
:101DD000A06C00F00FFCE80605D5216810204861D2
:101DE000204600F06FF8280705D5216808204861D3
:101DF000204600F081F9E80712D0206801688907C1
:101E000003D5C16821F01E01C16020680121C268AC
:101E100022F00102C260206841612046FFF79EFF68
:101E2000BDE8F081C31600082DE9F041040003D09D
:101E300094F8350018B105E00120BDE8F081204696
:101E400000F042F8A16902204FF0000E84F835003E
:101E500009B1C4F824E02068194A01681140016002
:101E6000D4E90452E168D4E9010C29431043A26982
:101E7000084354F8201B40EA0C001043B4E8E81073
:101E80000A68184328433043384340EA0C001043A3
:101E9000086054F8300C343C102805D12268E17FEA
:101EA000E06961F31F60906120680121C26842F01F
:101EB0001E02C260C4F84CE084F835100020BCE774
:101EC00007F0E0FF704700002DE9F04186B00446BE
:101ED00014216846FEF746FA4549206888427DD1BC
:101EE0004448016841F001010160006800F0010010
:101EF00005904048001D016841F010010160016833
:101F000001F010010591016841F0010101600168D3
:101F100001F001010591016841F0040101600168CF
:101F200001F004010591016841F0080101600168B8
:101F300001F008010591016841F0020101600168AA
:101F400001F002010591016841F00801016000689B
:101F5000022502AA694600F0080005907320CDE929
:101F600000050024244803260D2782E8D00001F054
:101F700039FB5020694602AACDE900051F4882E8D6
:101F8000D00001F02FFBC020694602AACDE9000570
:101F90001B4882E8D00001F025FB0820DFF86480B0
:101FA00002AA6946CDE90005404682E8D00001F06A
:101FB00019FB8020694602AACDE90005124882E893
:101FC000D00001F00FFB012240469503294601F0A5
:101FD00024FC01206946CDE9005000E004E0CDE991
:101FE0000204404601F0FEFA06B0BDE8F0810000B0
:101FF00000000248DC440258001002580000025859
:1020000000080258000C0258000402582DE9F84359
:10201000044690F83400012833D0354802274FF0A9
:10202000010884F83480002584F8357026684FF460
:10203000803C6345376847F48047376026684FF037
:102040004009376827F0020737602668376847EA93
:1020500001073760A16CC863A66C2649F164A16CC6
:102060000D65A5632564E56365640DD22168A06CE8
:10207000283101F057F980B3C4F84C9084F83580CA
:1020800027E00220BDE8F883A16C46464864C4F806
:102090003880E363626405E0E06B4008E063A06BB6
:1020A0004000A063E06B6045F6D2A06B801EA06389
:1020B000A36BE16BE06B2364009002EB810321686A
:1020C000A06C283100F062F838B1C4F84C9084F864
:1020D0003560012084F83450D4E7FFE720680168B8
:1020E00041F001010160002084F83450CAE700008B
:1020F000E3160008C3160008704700000068214B73
:10210000984238D01F4B1833984234D01D4B30338F
:10211000984230D01B4B483398422CD0194B603337
:10212000984228D0174B7833984224D0154B9033DF
:10213000984220D0134BA83398421CD0124B98429F
:1021400019D0114B1833984215D00F4B30339842A9
:1021500011D00D4B483398420DD00B4B6033984251
:1021600009D0094B7833984205D0074B90339842F9
:1021700001D0054BA83312B1016100207047C16046
:10218000FBE7000010000240100402402DE9FF4F61
:1021900081B081689646044600200E9A80290090FE
:1021A00012D094F83400012813D094F8350001219E
:1021B00084F8341001280ED0C90201200090616516
:1021C000009805B0BDE8F08F4FF480706065012085
:1021D000F7E70220F5E7FE4D02272068002684F885
:1021E0003570A842FB4D6665FB4EFC4FDFF8F0935F
:1021F000DFF8F0A3DFF8F0B33FD0A8423DD0B04203
:102200003BD0B84239D0484537D0504535D05845F5
:1022100033D0DFF8D4C30CF1180C60452DD0DFF8B3
:10222000CCC3604529D0DFF8C4C30CF1180C60455D
:1022300023D0DFF8B8C30CF1300C60451DD0DFF8B7
:10224000ACC30CF1480C604517D0DFF8A0C30CF10B
:10225000600C604511D0DFF894C30CF1780C604538
:102260000BD0DFF888C30CF1900C604505D0DFF887
:102270007CC30CF1A80C604510D1D0F800C03F2100
:102280004CF4802CC0F800C02068036194F85C30E6
:10229000A06D03F01F039940816010E0D0F800C0EA
:1022A00048F220084CEA080CC0F800C0206803611E
:1022B00094F85C30A06D03F01F0399404160134611
:1022C000029972462046FFF7B1FBC94AC84BDFF8B6
:1022D00020E31432DFF8F882283320680EF13C0E38
:1022E000C34940455FD0A8425DD0B0425BD0B84200
:1022F00059D0484557D0504555D0584553D0DFF8B0
:10230000E8C20CF1180C60454DD0DFF8E0C2604522
:1023100049D0DFF8D8C20CF1180C604543D0DFF883
:10232000CCC20CF1300C60453DD0DFF8C0C20CF1DE
:10233000480C604537D0DFF8B4C20CF1600C604542
:1023400031D0DFF8A8C20CF1780C60452BD0DFF853
:102350009CC20CF1900C604525D0DFF890C20CF1C6
:10236000A80C60451FD088421DD090421BD09842D7
:1023700019D0704517D0DFF878C20CF1500C6045C9
:1023800011D0DFF86CC20CF1640C60450BD0DFF8A3
:1023900060C20CF1780C604505D0DFF854C20CF136
:1023A0008C0C604509D1D4E9190CC0F804C0E06E6A
:1023B00018B1D4E91C0CC0F804C0C44620686045BC
:1023C0003FD0A8423DD0B0423BD0B84239D048457A
:1023D00037D0504535D0584533D0DFF80C8208F15E
:1023E000180840452DD0DFF80482404529D0DFF899
:1023F000FC8108F11808404523D0DFF8F08108F18E
:10240000300840451DD0DFF8E48108F14808404518
:1024100017D0DFF8D88108F16008404511D0DFF807
:10242000CC8108F1780840450BD0DFF8C08108F175
:102430009008404505D0DFF8B48108F1A808404570
:1024400018D1D0F8008028F01E0848F01608C0F80F
:1024500000802068D0F8148048F08008C0F814800C
:10246000206C08B9A06CC0B12068D0F8008048F09A
:10247000080810E0D0F8008028F00E0848F00A089C
:10248000C0F80080206C08B9A06C30B12068D0F88A
:10249000008048F00408C0F800802068E04640450D
:1024A00057D0A84255D0B04253D0B84251D0484539
:1024B0004FD050454DD058454BD0DFF82CC10CF1D2
:1024C000180C604545D0DFF824C1604541D0DFF8E5
:1024D0001CC10CF1180C60453BD0DFF810C10CF1A9
:1024E000300C604535D0DFF804C10CF1480C604574
:1024F0002FD0DFF8F8C00CF1600C604529D0DFF870
:10250000ECC00CF1780C604523D0DFF8E0C00CF192
:10251000900C60451DD0DFF8D4C00CF1A80C6045CC
:1025200017D0884215D0904213D0984211D07045F0
:102530000FD02F49503188420BD02D496431884249
:1025400007D02B497831884203D029498C31884201
:102550000DD1206E0168C90303D5016841F4807173
:102560000160E06E18B1016841F48071016020687B
:10257000404528D0A84226D0B04224D0B84222D02C
:10258000484520D050451ED058451CD0164918311A
:10259000884218D01549884215D01449183188420C
:1025A00011D01249303188420DD01049483188424B
:1025B00009D00E496031884205D00C4978318842F3
:1025C00001D00A499031016841F001010160F7E54D
:1025D0001000024028000240400002405800024023
:1025E0007000024088000240A00002401004024037
:1025F000085402582DE9F05F28B190F835100229EF
:1026000004D0802141650120BDE8F09F904C904BA3
:102610000168183C18338E4ADFF83C92A1428D4C79
:10262000DFF838E28E4FDFF83CB2DFF83CA28F4D86
:102630008F4E31D091422FD099422DD0A1422BD034
:10264000494529D0714527D0B94225D0DFF810C2BD
:102650000CF1180C61451FD0DFF808C2ACF1600C1A
:10266000614519D0DFF8FCC1ACF1480C614513D0CD
:10267000DFF8F0C1ACF1300C61450DD0DFF8E4C1FA
:10268000ACF1180C614507D0594505D0514503D030
:10269000A94201D0B1422CD1DFF8B4C14FF00408F7
:1026A00080F83580ACF1180C61451DD091421BD0EB
:1026B000994219D0A14217D0494515D0714513D080
:1026C000B94211D06648183081420DD06548603853
:1026D000814209D063484838814205D0614830388A
:1026E000814201D05F481838086820F00100086076
:1026F000ABE0D1F800C02CF00E08DFF854C1C1F8EF
:102700000080ACF1180C0168614527D0914225D0BA
:10271000994223D0A14221D049451FD071451DD0F7
:10272000B9421BD0DFF838C10CF1180C614515D047
:10273000DFF830C1ACF1600C61450FD0DFF824C187
:10274000ACF1480C614509D0DFF818C1ACF1300C90
:10275000614503D0DFF80CC1ACF1180CD1F800C012
:102760002CF0010CC1F800C0DFF8E4804FF0010C40
:102770000168A8F11808414546D0914244D09942D9
:1027800042D0A14240D049453ED071453CD0B942EB
:102790003AD0334A1832914236D0324A603A9142A6
:1027A00032D0304A483A91422ED02E4A303A9142A5
:1027B0002AD02C4A183A914226D0594524D0514566
:1027C00022D0A94220D0B1421ED02A4A91421BD029
:1027D000284A1432914217D0264A2832914213D007
:1027E000244A3C3291420FD0224A503291420BD0BF
:1027F000204A6432914207D01E4A7832914203D077
:102800001C4A8C32914218D1016E0A6822F48072FF
:102810000A6090F85C20816D02F01F020CFA02F24F
:102820004A60D0E919124A60C16E31B10A6822F4D7
:1028300080720A60D0E91C124A600022016D80F8A3
:1028400035C080F8342001B188470020DCE6000064
:1028500028000240580002407000024088000240F8
:10286000A00002407004024088040240A00402401C
:10287000B8040240085402582DE9FC5F0446F74EA4
:102880000020DFF8D88300904FF41652F44808F186
:102890001808A56DDFF8C493DFF8C0A3016809F13B
:1028A000300920680AF1480AB1FBF2F1B042019107
:1028B0002F68D5F800C0DFF8ACB335D04146884268
:1028C00032D0484530D050452ED058452CD0E5491F
:1028D0001831884228D0E3493031884224D0E14978
:1028E0004831884220D0E04988421DD0DE49183165
:1028F000884219D0DC493031884215D0DA49483154
:10290000884211D0DFF860E30EF1600E70450BD005
:10291000D54A7832904207D0D34B9033984203D0B7
:10292000D149A83188427DD194F85C20082102F079
:102930001F0201FA02F23A424AD0B04232D0404578
:1029400030D048452ED050452CD058452AD0C54AC5
:102950001832904226D0C34A3032904222D0C14A27
:10296000483290421ED0C04A90421BD0BE4A183214
:10297000904217D0BC4A3032904213D0BA4A483203
:1029800090420FD0B84A603290420BD0B64A7832AB
:10299000904207D0B44A9032904203D0B24AA83253
:1029A000904203D1026802F0040202E0026802F0E1
:1029B00008026AB1026822F00402026094F85C0026
:1029C00000F01F008140A960606D40F0010060656B
:1029D00094F85C00012100F01F008140394240D092
:1029E0002068B04234D0404532D0484530D05045C0
:1029F0002ED058452CD09B4A1832904228D0994A64
:102A00003032904224D0974A4832904220D0964AA1
:102A100090421DD0944A1832904219D0924A3032D6
:102A2000904200E0AFE113D08F4A483290420FD07D
:102A30008D4A603290420BD08B4A7832904207D058
:102A4000894A9032904203D0874AA83290427DD181
:102A5000406910F0800F04D0A960606D40F0020062
:102A6000606594F85C00042100F01F008140394249
:102A70003ED02068B04232D0404530D048452ED0BC
:102A800050452CD058452AD0764A1832904226D04C
:102A9000744A3032904222D0724A483290421ED05C
:102AA000714A90421BD0704A1832904217D06E4A39
:102AB0003032904213D06C4A483290420FD06A4A6A
:102AC000603290420BD0684A7832904207D0664A12
:102AD0009032904203D0644AA83290424ED10068AE
:102AE00010F0020F04D0A960606D40F00400606532
:102AF00094F85C00102100F01F008140394258D04A
:102B00002068B04234D0404532D0484530D050459E
:102B10002ED058452CD0534A1832904228D0514AD2
:102B20003032904224D04F4A4832904220D04E4A10
:102B300090421DD04C4A1832904219D04A4A303245
:102B4000904215D0484A4832904200E014E00FD03D
:102B5000454A603290420BD0434A7832904207D0C7
:102B6000414A9032904203D03F4AA832904207D166
:102B7000006800F0080006E0006872E70068B7E748
:102B8000006800F00400A0B1A96020680168490352
:102B900004D50068000308D5A16C07E00168C905E9
:102BA00003D4016821F008010160216C09B12046BD
:102BB000884794F85C00202100F01F0081403942D2
:102BC00079D02068B04232D0404530D048452ED030
:102BD00050452CD058452AD0224A1832904226D04F
:102BE000204A3032904222D01E4A483290421ED0B3
:102BF0001D4A90421BD01C4A1832904217D01A4AE4
:102C00003032904213D0184A483290420FD0164AC0
:102C1000603290420BD0144A7832904207D0124A68
:102C20009032904203D0104AA832904203D10068FB
:102C300000F0100002E0006800F00200B0B3A960EC
:102C400094F835000428206801680FD049037ED528
:102C5000006800032BD4616C2AE0000010000240E1
:102C600048000020700002401004024021F01601CC
:102C700001602068416921F080014161206C08B940
:102C8000A06C20B12068016821F00801016094F86F
:102C90005C303F21012003F01F0300229940A9600E
:102CA00084F8350084F83420216D65E003E0E16BA1
:102CB00009B120468847606D00287DD0606DC0074F
:102CC00059D02068042184F83510B0422BD04045FB
:102CD00029D0484527D0504525D0584523D09D4977
:102CE000884220D09B49183188421CD09949303104
:102CF000884218D09849884215D09749183188429F
:102D000011D09549303188420DD0934948318842DD
:102D100009D091496031884205D08F497831884285
:102D200001D08D499031016821F0010101602068D6
:102D30000099019A491C0091914202D80168C90783
:102D4000F6D10068C00710D003200FE0FFE701684C
:102D5000C905ACD403680121002223F010030360ED
:102D600084F8351084F83420A1E7012084F8350078
:102D7000002084F83400E16C00291DD002B0204608
:102D8000BDE8F05F0847754988421DD0734914318A
:102D9000884219D071492831884215D06F493C3199
:102DA000884211D06D49503188420DD06B49643151
:102DB000884209D0694900E084E07831884203D034
:102DC00066498C3188427DD194F85C800427016883
:102DD00008F01F0807FA08F717EA0C0F009746D00B
:102DE0004F0744D500980F04686003D5C8033CD44E
:102DF000A16CC1E7880638D42068B0422DD055496F
:102E00006039884229D0484527D0504525D05845BB
:102E100023D05049884220D04E49183188421CD0D6
:102E20004C493031884218D04B49884215D04A4924
:102E30001831884211D04849303188420DD0464976
:102E40004831884209D0704507D0904205D0984259
:102E500003D04149A831884203D1016821F008011B
:102E600002E0016821F004010160216C84E702277F
:102E700007FA08F717EA0C0F00974ED08F074CD5CA
:102E800000980F04686003D5C80344D4616C73E7ED
:102E9000880640D42068B0422FD02E49603988423D
:102EA0002BD0484529D0504527D0584525D0294911
:102EB000884222D02749183188421ED02549303116
:102EC000884200E044E018D02349884215D02249C6
:102ED0001831884211D02049303188420DD01E4926
:102EE0004831884209D0704507D0904205D09842B9
:102EF00003D01949A831884203D1016821F0140197
:102F000002E0016821F00A010160012184F8351016
:102F1000002084F83400E16B2EE7082202FA08F260
:102F200012EA0C0F14D0090712D5016821F00E0126
:102F3000016094F85C100120002201F01F0100FAEA
:102F400001F16960606584F8350084F8342012E787
:102F5000BDE8FC9F8800024010040240085402585B
:102F60002DE9F05F044600F063FC002C07467DD09D
:102F7000E34E022120684FF00308DFF888934FF0FA
:102F80000005DFF884A3B042DFF880B334D0DC4A18
:102F90001832904230D048452ED050452CD058455C
:102FA0002AD0DA4A1832904226D0D84A303290429B
:102FB00022D0D64A483290421ED0D54A90421BD0E9
:102FC000D34A1832904217D0D14A3032904213D0AF
:102FD000CF4A483290420FD0CD4A603290420BD057
:102FE000CB4A7832904207D0C94A9032904203D0FF
:102FF000C74AA83290427DD184F83510B04284F897
:1030000034502ED0BE49183188422AD0484528D0A5
:10301000504526D0584524D0BC491831884220D08C
:10302000BA49303188421CD0B8494831884218D05A
:10303000B749884215D0B6491831884211D0B449F1
:10304000303188420DD0B2494831884209D0B04968
:103050006031884205D0AE497831884201D0AC4910
:103060009031016821F00101016008E027E100BF13
:1030700000F0DEFBC01B052801D920211CE12068DF
:103080000068C007F4D104F108002168D4E9053CC8
:103090008E4685C809681043D4E907281F43636A30
:1030A00038439C4F40EA0C001043394040EA080086
:1030B000042B40EA010003D1D4E90B121143084369
:1030C000954909686FF30F01B1F1005F0FD3616893
:1030D000A1F12902052A08D9163A032A05D9083A86
:1030E000012A02D94F39032901D840F48010CEF8C3
:1030F000000000E023E02068676A4069042F20F0A8
:10310000070047EA00070DD1D4E90A01074349B196
:103110002046FEF761FC28B140206065012184F85B
:103120003510CCE0206847612046FEF773FB94F829
:103130005C203F2102F01F029140816054E0774AF9
:1031400090421BD0754B1433984217D0734B2833E1
:10315000984213D0714B3C3398420FD06F4B503391
:1031600098420BD06D4B6433984207D06B4B783349
:10317000984203D0694B8C3398427DD184F8351046
:1031800084F83450664B0168A26801EA030E402AB5
:1031900073D0802A72D00022D4E90378D4E90531B3
:1031A00042EAD70242EAD8085C4AD4E9077C48EAF6
:1031B000D30848EAD10141EAD701524241EA1C1141
:1031C000142341EA0E01016020681044B0FBF3F0C3
:1031D0008000E0652046FEF71DFB94F85C2001218D
:1031E00002F01F02914041602068B04257D044492C
:1031F0001831884253D0484551D050454FD058459A
:103200004DD042491831884249D040493031884236
:1032100045D03E494831884241D03D4988423ED060
:103220003B49183188423AD039493031884236D04A
:1032300037494831884232D03549603188422ED0F2
:103240003349783188422AD031499031884226D09A
:103250002F49A831884222D0304988421FD02F49B7
:10326000143188421BD02D492831884217D02B4970
:103270003C31884213D002E01DE017E018E02749F6
:10328000503188420BD025496431884207D0234908
:103290007831884203D021498C31884229D1204697
:1032A000FEF712FBA06880280CD00CE0102273E718
:1032B0004FF4804270E74021616584F83580012039
:1032C000BDE8F09F6560216E20790860D4E919019E
:1032D00041606068401E072808D82046FEF742FB80
:1032E000E06E0560D4E91C01416002E0E5662567F7
:1032F00065670120656584F835000020E0E700007F
:10330000100002404000024058000240700002409D
:10331000100402403F8010FE0010005C0854025868
:103320000F00FEFF2DE9F84F04008C464FF000001F
:10333000009014D094F83400012812D094F835503D
:103340000120002184F83400012D0CD0C0026065FA
:103350000120009084F834100098BDE8F88F012017
:10336000FBE70220F9E78C4D0226206884F83560DF
:10337000A8428A4D61658A4E8A4FDFF82C82DFF8B9
:103380002C92DFF82CA2DFF82CB226D0A84224D051
:10339000B04222D0B84220D040451ED048451CD073
:1033A00050451AD0584518D08349884215D08249D3
:1033B0001831884211D08049303188420DD07E4981
:1033C0004831884209D07C496031884205D07A4929
:1033D0007831884201D078499031016821F00101AB
:1033E000016061462046FEF771FB6B492068884208
:1033F0002CD0A8422AD0B04228D0B84226D040458E
:1034000024D0484522D0504520D058451ED06A4A85
:1034100090421BD0684A1832904217D0664A303228
:10342000904213D0644A483290420FD0624A6032D0
:1034300090420BD0604A7832904207D05E4A903278
:10344000904203D05C4AA83290420CD1026822F02C
:103450001E0242F016020260206C88B120680268E9
:1034600042F008020BE0026822F00E0242F00A026B
:103470000260206C20B12068026842F00402026001
:10348000206888424BD0A84249D0B04247D0B842C9
:1034900045D0404543D0484541D050453FD05845A0
:1034A0003DD0454A90423AD0434A1832904236D0F5
:1034B000414A3032904232D03F4A483290422ED078
:1034C0003D4A603290422AD03B4A7832904226D020
:1034D000394A9032904222D0374AA83290421ED0C8
:1034E000364A90421BD0354A1432904217D0334AA4
:1034F0002832904213D0314A3C3290420FD02F4AAA
:10350000503290420BD02D4A6432904207D02B4A61
:103510007832904203D0294A8C3290420DD1206EED
:103520000268D20303D5026842F480720260E06E42
:1035300018B1026842F4807202602068884226D086
:10354000A84224D0B04222D0B84220D040451ED05C
:1035500048451CD050451AD0584518D016498842C5
:1035600015D015491831884211D01349303188429D
:103570000DD011494831884209D00F496031884245
:1035800005D00D497831884201D00B49903101684E
:1035900041F001010160DFE6100002402800024016
:1035A0004000024058000240700002408800024083
:1035B000A0000240B8000240100402400854025823
:1035C00070B5044600F034F90546601C02D004488A
:1035D0000078044400F02CF9401BA042FAD370BDDF
:1035E0003C0000202DE9F84F03247D4D00234FF0CF
:1035F00001094FF0B04B4FF00F0AE9E009FA03F769
:103600003A4076D00E7906F00306012E01D0022E44
:1036100018D1D0F808C04FEA430ECE6804FA0EF86D
:103620002CEA080C06FA0EF646EA0C068660D0F87C
:1036300004C00E792CEA070CC6F300169E4046EA39
:103640000C0646600E79F643B6070BD0C6684FEA03
:1036500043088F6804FA08FC26EA0C0607FA08F704
:103660003743C7600E7906F00306022E12D1DE083A
:103670000F694FEA437C00EB8606B646366A4FEA8E
:10368000DC6C0AFA0CF807FA0CF726EA080637434E
:10369000CEF820700F7906684FEA430807F0030759
:1036A00004FA08FC07FA08F726EA0C063743076015
:1036B0004E6816F4403F1CD04A4E376847F0020768
:1036C000376036689F0706F00206009623F003066F
:1036D00006F1B046B6463F0FD6F80864DFF8088119
:1036E0000AFA07FC404526EA0C0603D14FF0000C0D
:1036F00041E06CE0DFF8F4C0604502D14FF0010C0E
:1037000039E0DFF8ECC0604502D14FF0020C32E046
:10371000DFF8E0C0604502D14FF0030C2BE0DFF88A
:10372000D8C0604502D14FF0040C24E0DFF8CCC0D3
:10373000604502D14FF0050C1DE0DFF8C4C06045C4
:1037400002D14FF0060C16E0DFF8B8C0604502D198
:103750004FF0070C0FE0DFF8B0C0604502D14FF02A
:10376000080C08E0DFF8A4C0604502D14FF0090C56
:1037700001E04FF00A0C0CFA07FC4CEA060CCEF8FC
:1037800008C44F68DBF80060FF0226EA020600D595
:1037900016435F46CBF80060D1F804C0DBF8046044
:1037A0005FEA8C2C26EA020600D516437E606E681E
:1037B0004F6826EA0206BF0300D516436E602E68E6
:1037C0004F6826EA0206FF0300D516432E605B1CF5
:1037D0000A6832FA03F67FF411AFBDE8F88F0000F3
:1037E00080000058F44402580000025800040258B7
:1037F00000080258000C0258001002580014025829
:1038000000180258001C02580020025800240258D8
:103810000069084000D0012070470AB181617047FB
:103820000904FBE701480068000C70470010005CC9
:1038300001488068704700003C0000200248816811
:1038400002781144816070473C000020032010B5CD
:1038500000F0D4F801F09CFB0F4A1049146813687B
:10386000C4F3032203F00F038A5CC95C02F01F0259
:1038700001F01F01D0400A4A20FA01F11160094904
:1038800008600F2000F010F808B1012010BD00F012
:1038900079F8002010BD0000184402588AE500089D
:1038A0004C0000204800002070B50D4D04462878DB
:1038B000A0B14FF47A71B1FBF0F00A490968B1FB8D
:1038C000F0F002F01DFA48B9102C07D20022214670
:1038D000501E00F073F800206C6070BD012070BDB8
:1038E0003C00002048000020154BF0B5083B427812
:1038F00013491A600B680A1F23F001030B60436829
:103900001360057BC67A827A437B2D07847B45EA68
:103910000665C77B90F809C0067A90F800E045EA92
:10392000C24040EA834040EA444040EA074040EA5F
:103930000C2040EA460040EA0E000860F0BD00009E
:10394000A0ED00E0BFF35F8F044800210368034A45
:1039500023F48033036070321160704724ED00E07F
:10396000074A40F00100064970321060086840F4D0
:1039700080300860BFF34F8FBFF36F8F7047000038
:1039800024ED00E0054808B5016841F0020101603E
:10399000006800F00200009008BD0000F4440258E6
:1039A000002809DB410900F01F028900012001F114
:1039B000E0219040C1F80001704700000E4BF0B4C8
:1039C0001B680D46C3F30223C3F10706042E00D97A
:1039D0000426191D072901D2002300E0DB1E012463
:1039E00004FA06F19C40491E2940641E9940144087
:1039F0002143F0BC04F0DBBB0CED00E0064900F015
:103A0000070210B54FF6FF040868044B204040EA57
:103A100002201843086010BD0CED00E00000FA051C
:103A2000704770477047704770470A0601F00F01F2
:103A300001EBC10100EB810101D5143101E001F579
:103A40001571006804F03CBA2DE9FC5F0568044676
:103A5000284604F0AFFA00287ED1206804F0D6FA98
:103A6000002879D0D5F80808C0F30D20C4F8D40494
:103A7000206804F0CBFA800704D52068416901F082
:103A800002014161206804F0C1FAC10604F29C40C1
:103A9000009035D52068816921F0100181612F6A7D
:103AA00007F00F01C7F3434001EBC101022804EB0B
:103AB000810606F5157602D0062812D01BE047F6DF
:103AC000F070074217D0C7F30A12F168174628466C
:103AD00004F0A0FA7169F068394471613844F0600B
:103AE00009E000990822284604F094FA7069C7F3A7
:103AF0000A11084470612068816941F010018161F8
:103B0000206804F083FA00034FF0080B4FF0000A1E
:103B10004FF001097CD52068002604F056FA0746CC
:103B200074E0F80770D02068F1B204F067FA8046BC
:103B3000C00707D005EB4611C1F8089B3146204667
:103B400002F07EFF5FEA087024D505EB4611C1F84C
:103B500008BBFA49206800E03EE2026C00EB461028
:103B600001928A42D0F8081B05D9090403D54FF405
:103B70000041C0F8081B204600F035FAEF490198D3
:103B8000884207D9A079012804D120680121009A30
:103B900004F06AF95FEAC86004D505EB461110200D
:103BA000C1F8080B5FEA88701DD56869000605D565
:103BB000D5F8040840F48061C5F8041806EBC60087
:103BC00004EB800090F8571200F51570012905D11B
:103BD00080F803A02046F1B200F001FA05EB46118F
:103BE0000220C1F8080B5FEA886004D505EB461196
:103BF0002020C1F8080B5FEA884005D505EB461187
:103C00004FF40050C1F8080B7F08761C002F88D1B4
:103C1000206804F0FBF940036ED5206804F0CEF96B
:103C20000026074666E0F80762D02068F1B204F08B
:103C3000D3F98046C00723D0D5F8342806F00F0109
:103C400005EB461309FA01F18A43C5F83428C3F895
:103C50000899A07901280FD106EBC60004EB80007B
:103C6000D0E907211144016236B9606A20B92068A1
:103C70000121009A04F0F8F82046F1B2FFF7D2FED5
:103C80005FEA087003D505EB4611C1F808B95FEA91
:103C9000C86004D505EB46111020C1F808095FEA99
:103CA000486004D505EB46114020C1F808095FEAD9
:103CB000887016D53146284604F051F906EBC60047
:103CC00004EB8000C17D1430012905D180F803A0E8
:103CD0002046F1B200F082F905EB46110220C1F84E
:103CE00008095FEA086003D53146204602F00EFF5E
:103CF0007F08761C002F96D1206804F087F90028F1
:103D000011DAD5F8040820F00101C5F8041894F878
:103D1000CC0401283BD0204600F063F920684169BB
:103D200001F000414161206804F070F900050BD5F5
:103D3000D5F80808C00702D0204600F055F92068E1
:103D4000416901F400614161206804F05FF90001FC
:103D50000AD52068416901F00061416194F8CC0402
:103D6000E0B1204600F040F9206804F04FF9C004AB
:103D700072D5D5F8040820F00101C5F804182068B0
:103D8000102104F0ECF800214FF67F322DE00021E5
:103D9000204684F8CCA4FFF743FEBFE784F8CC9418
:103DA0002068406D0121C0F38300C4F8D004204690
:103DB000FFF736FED8E700BF05EB4110C0F8082931
:103DC000D0F8003923F40013C0F80039C0F8082BEC
:103DD000D0F8003B23F40013C0F8003BD0F8003BC0
:103DE00043F00063C0F8003B491C20798842E3D8C7
:103DF000D5F81C0840F00111C5F81C18E07B68B12B
:103E0000D5F8840840F00B01C5F88418D5F84408AB
:103E100040F00B012846C5F844180DE0D5F8140809
:103E200042F22B010843C5F81408D5F8100840F0F9
:103E30000B012846C5F81018D0F8000820F4FE61E0
:103E4000C5F80018A1792068009A04F00DF82068E0
:103E5000416901F480514161206804F0D7F8800481
:103E600015D5206803F0F2FF206804F096F8E071A1
:103E700001F048F8E2790146206804F0EBF82046AA
:103E800000F0AEF82068416901F4005141612068FA
:103E900004F0BCF8000707D5204600F0A3F820681E
:103EA000416901F008014161206804F0AFF80006A3
:103EB00016D5A869012620F08001A9610DE000BF98
:103EC00006EBC60004EB800090F85702012803D1EE
:103ED0002046F1B2FFF7A9FD761C2079B042EFD859
:103EE000206804F093F8C0021FD501264F4614E065
:103EF00006EBC60105EB461004EB8101D0F8000982
:103F00000A7E012A08D1002806DAF0B2CF7540F007
:103F100080012046FFF789FD761C2079B042E7D862
:103F20002068416901F480114161206804F06EF855
:103F3000800234D501204B4629E000000A30544F5E
:103F400000EBC00205EB401104EB8202D1F8001B2C
:103F500092F85862012E19D1002917DA94F8D46426
:103F600001F4803106F00106B1420FD182F85732D8
:103F7000A96941F08002AA616969090606D4D5F8E9
:103F8000040840F40070C5F8040803E0401C2179DF
:103F90008142D5D82068416901F40011416120684F
:103FA00004F034F8400007D52046FFF73AFD2068BA
:103FB000416901F080414161206804F027F8400721
:103FC0000AD520684568680702D52046FFF72CFD12
:103FD0002068416829434160BDE8FC9F70477047F5
:103FE000704770477047704770470000134970B5BD
:103FF0000A68D243520705D5096801F007018142DA
:1040000013D118E00A6822F0070202430A60FFF7A2
:104010000FFC0A4D4FF47A760446083D07E000BFD6
:10402000FFF706FC001BB04201D9012070BD2868D3
:10403000C0438004F4D4002070BD00000C48025836
:104040000248016841F480710160704700480258DD
:1040500010B500F057FF05490968054AC1F3021180
:10406000515C01F01F01C84010BD000020440258FF
:104070008AE50008494930B5484C0B1D0A681434DC
:1040800009681D68246802F00303C5F30012C1F338
:104090000531C4F3CC04002914FB02F200EE102A0F
:1040A000F8EE400A75D03F4A9FED3D1AB7EE000A80
:1040B0006BB1DFED3D1A012B01D0022B64D002EE73
:1040C000101A1168F8EE422A81EEA22A21E0334C40
:1040D000283C23689B0612D5344B246801EE901AC5
:1040E0001168C4F3C104F8EE612AE34001EE903A8E
:1040F000C1F30801F8EE611A81EEA22A0BE001EE8D
:10410000901ADFED2B2A00BFF8EE611A116882EEDB
:10411000A12AC1F3080101EE901A1168F8EE611AA4
:1041200040EE811A71EE800A62EE200AC1F3462148
:1041300001EE101AB8EE411A31EE001AC0EE811AE3
:10414000BCEEE11A80ED001A1168C1F3064101EEE0
:10415000101AB8EE411A31EE001AC0EE811ABCEE08
:10416000E11A80ED011A1168C1F3066101EE101A1F
:10417000B8EE411A31EE000A80EE801ABCEEC10A98
:1041800080ED020A30BD04E001EE901ADFED092A4D
:10419000BAE70021016041608160F3E728440258DA
:1041A00000000039384402580024744A0090D003BB
:1041B0000024744C20BCBE4B494930B5484C0B1D03
:1041C0000A681C3409681D68246802F00303C5F3FB
:1041D0000022C1F30551C4F3CC04002914FB02F200
:1041E00000EE102AF8EE400A75D03F4A9FED3D1AC6
:1041F000B7EE000A6BB1DFED3D1A012B01D0022BA7
:1042000064D002EE101A1168F8EE422A81EEA22A5A
:1042100021E0334C283C23689B0612D5344B24689C
:1042200001EE901A1168C4F3C104F8EE612AE3406C
:1042300001EE903AC1F30801F8EE611A81EEA22A6C
:104240000BE001EE901ADFED2B2A00BFF8EE611AA9
:10425000116882EEA12AC1F3080101EE901A1168DB
:10426000F8EE611A40EE811A71EE800A62EE200AC1
:10427000C1F3462101EE101AB8EE411A31EE001AD0
:10428000C0EE811ABCEEE11A80ED001A1168C1F38C
:10429000064101EE101AB8EE411A31EE001AC0EED6
:1042A000811ABCEEE11A80ED011A1168C1F30661B2
:1042B00001EE101AB8EE411A31EE000A80EE801AB3
:1042C000BCEEC10A80ED020A30BD04E001EE901A96
:1042D000DFED092ABAE70021016041608160F3E760
:1042E0002844025800000039404402580024744A0F
:1042F0000090D0030024744C20BCBE4B2DE9FE4F2F
:104300000546DFF8E48350F8081B0024F64FC94344
:10431000019005F12800264608F1240800900801C4
:104320001DD4A86E50B1B0F5801F0CD0B0F5001FA1
:104330000ED0B0F5401F1ED001240FE0386840F4C5
:104340000030386017E00198022102F031FC03E0F0
:104350000098022102F0BCFC04000CD026462888FC
:10436000C043C00523D4A86D05281ED2DFE800F0A5
:104370000C11161B1B00AA6ED8F8001021F4401176
:104380001143C8F80010EAE7386840F4003038609C
:1043900009E00198002102F00BFC03E000980021E5
:1043A00002F096FC044674B100E0012426462888F9
:1043B000C043800528D4E86D80281ED00CDC90B165
:1043C00040280ED114E0AA6DD8F8001021F00701A2
:1043D0001143C8F80010EAE7C02813D0B0F5807F79
:1043E00010D001240FE0386840F40030386009E054
:1043F0000198002102F0DCFB03E00098002102F0AC
:1044000067FC04469CB126462888DFF8DC92C0434E
:1044100009F12C0940052CD4D5F8A800B0F5800F7F
:1044200020D00DDCA0B1B0F5001F0FD115E0EA6D72
:10443000D8F8001021F4E0711143C8F80010E3E748
:10444000B0F5C00F13D0B0F5000F10D001240FE06D
:10445000386840F40030386009E00198002102F02B
:10446000A7FB03E00098002102F032FC04467CB177
:1044700026462888C04300052DD4D5F8AC00B0F1FD
:10448000007F21D00EDCA8B1B0F1807F10D116E002
:10449000D5F8A820D9F8001021F460011143C9F81B
:1044A0000010E6E7B0F1407F13D0B0F1806F10D07C
:1044B00001240FE0386840F40030386009E00198CA
:1044C000002102F075FB03E00098002102F000FCDF
:1044D000044674B126462868C04380011FD4E86CA6
:1044E000D8B110280FD0202812D0302815D00124A0
:1044F00014E0D5F8AC20D9F8001021F0E0611143A8
:10450000C9F80010E7E7386840F40030386004E08C
:104510000198022102F04CFB044674B1264628881B
:10452000C043C0042BD4286EB0F5005F20D00DDC52
:10453000A0B1B0F5805F0FD115E06B48EA6C203078
:10454000016821F0300111430160E8E7B0F5405FF8
:1045500013D0B0F5804F10D001240FE0386840F43C
:104560000030386009E00198002102F021FB03E0EF
:104570000098002102F0ACFB04468CB12646288846
:10458000C043800429D4686EB0F5403F23D010DCCE
:1045900008B3B0F5803F14D0B0F5003F0FD115E05F
:1045A0002A6ED8F8001021F4E0411143C8F8001039
:1045B000E5E7B0F5802F0ED0B0F5A02F0BD0012489
:1045C0000AE00198012102F0F3FA03E000980121CA
:1045D00002F07EFB044694B126462888C04340047E
:1045E0002AD4D5F8B000B0F1405F23D010DC08B376
:1045F000B0F1805F14D0B0F1005F0FD115E06A6EAA
:10460000D8F8001021F4E0211143C8F80010E4E7C5
:10461000B0F1804F0ED0B0F1A04F0BD001240AE0D2
:104620000198012102F0C4FA03E00098012102F090
:104630004FFB044674B126462888C04300041FD4AB
:10464000286FD8B1B0F1805F0ED0B0F1005F10D00C
:10465000012414E0D5F8B020D9F8001021F0E04191
:104660001143C9F80010E7E7386840F400303860BB
:1046700004E00198012102F09BFA044674B1264639
:104680002868C043C0011ED4A86CD0B101280ED048
:10469000022811D0032814D0012413E02A6FD8F87F
:1046A000001021F040511143C8F80010E8E73868C5
:1046B00040F40030386004E00198022102F078FAFA
:1046C0000446ACB126462868DFF81CB0C043ABF105
:1046D0001C0B400252D40548016841F4807101600E
:1046E000FFF7A6F8824611E02C4402580048025811
:1046F000FA48AA6C016821F0030111430160E2E766
:10470000FFF796F8A0EB0A00642835D8F448006853
:10471000C005F5D58CBBDFF8C4A3B5F8B4100AF119
:10472000240ADAF8000001F4407100F44070884275
:1047300011D0DAF80010DAF8002021F4407142F4C8
:104740008032CAF80020DAF8002022F48032CAF859
:104750000020CAF80010D5F8B400B0F5807F1AD157
:10476000FFF766F8029012E0FFF762F80299411A2B
:1047700041F2883081420AD9032426462878DFF89E
:104780005CA3C0430AF1080AC00721D03CE0DAF874
:1047900000008007E8D5D5F8B410C1F30120032844
:1047A00058460DD0016821F47C510160B5F8B42061
:1047B000DAF80010C2F30B021143CAF80010DDE76B
:1047C000C84A036802EA111223F47C511143ECE752
:1047D000E86F182816D005DCA0B1082808D01028EA
:1047E00004D10AE020280DD028280BD001240AE0AB
:1047F0000198012102F0DCF903E00098012102F0A8
:1048000067FA044664B126462878C04380071ED460
:10481000A86F062819D2DFE800F0160C111616163C
:10482000EA6FDAF8001021F038011143CAF80010DD
:10483000EAE70198012102F0BBF903E000980121A9
:1048400002F046FA04467CB100E0012426462878AE
:10485000C04340071FD4D5F89400062819D2DFE8DA
:1048600000F0160C11161616AA6FDAF8001021F0D7
:1048700007011143CAF80010E9E70198012102F08D
:1048800097F903E00098012102F022FA0446A4B14E
:1048900000E0012426462878C04380062BD4D5F8B2
:1048A0009000B0F1405F24D011DC10B3B0F1805F14
:1048B00015D0B0F1005F10D116E0D5F89420D9F8EA
:1048C000001021F007011143C9F80010E3E7B0F12F
:1048D000804F0ED0B0F1A04F0BD001240AE0019818
:1048E000002102F065F903E00098022102F0F0F9DE
:1048F000044694B126462878C04340062BD4D5F808
:104900009C00B0F5406F24D011DC10B3B0F5806F7F
:1049100015D0B0F5006F10D116E0D5F89020DAF878
:10492000001021F0E0411143CAF80010E3E7B0F5B0
:10493000805F0ED0B0F5A05F0BD001240AE0019893
:10494000002102F035F903E00098022102F0C0F9DD
:10495000044694B126462878C04300062BD4D5F8E7
:10496000A000B0F5C04F24D011DC10B3B0F5005F4B
:1049700015D0B0F5804F10D116E0D5F89C20D9F8AD
:10498000001021F4E0511143C9F80010E3E7B0F53D
:10499000004F0ED0B0F5204F0BD001240AE0019853
:1049A000002102F005F903E00098022102F090F9DD
:1049B000044654B126462878C04300071ED4D5F8D3
:1049C0008400B0F5805F0AD00FE0D5F8A020D9F8B8
:1049D000001021F460411143C9F80010EBE7009882
:1049E000022102F075F900B10126D5F88420DAF829
:1049F000001021F440511143CAF800102878C04338
:104A0000C00613D4D5F89800B0F5807F05D1009882
:104A1000022102F05DF900B10126D5F89820D9F8FD
:104A2000001021F440711143C9F800102868C043F8
:104A3000000316D4D5F8A40038B1B0F5803F09D0F2
:104A4000B0F5003F0BD001240AE00198002102F0EC
:104A5000AFF803E00098022102F03AF904468CB165
:104A600026462868C043400322D4D5F88800B0F514
:104A7000801F11D0B0F5001F13D0B0F5401F15D026
:104A8000012414E0D5F8A420D9F8001021F4403115
:104A90001143C9F80010E4E7386840F4003038608A
:104AA00004E00098012102F013F904465CB12646A7
:104AB0002868C043C00323D4286DA8B1B0F5803F57
:104AC00017D001241BE0D5F88820DAF8001021F473
:104AD00040111143CAF80010EAE700004C440258A4
:104AE00000480258CFFFFF00386840F400303860BB
:104AF00004E00198022102F05BF80446E4B1264686
:104B00002868C043800005D40098022102F0E0F834
:104B100000B101262868C04380031BD4D5F880006B
:104B2000B0B1B0F5807F0FD0B0F5007F10D0B0F5F8
:104B3000407F0DD001240CE05A482A6D016821F411
:104B4000803111430160DBE7386840F400303860A1
:104B5000ECB326462868C043C00207D46A6FD8F871
:104B6000001021F000411143C8F800102868C0432C
:104B7000C00008D4D5F8B820DBF8001021F480413B
:104B80001143CBF800102868C043800207D4EA6EB6
:104B9000D8F8001021F080711143C8F8001028687F
:104BA000C04340000CD4DBF8001021F40041CBF8E6
:104BB0000010DBF80010D5F8BC201143CBF8001032
:104BC0002868C04308D437486A6D016800E018E0DF
:104BD00021F04051114301602868C043000208D40D
:104BE000D5F88C20DAF8001021F440011143CAF8FE
:104BF000001028790024C04300F0010020430AD0AF
:104C00000FE0D5F88020DAF8001021F4407111434C
:104C1000CAF800109EE70198002101F0C9FF00B119
:104C200006462879C04300F00200204305D10198D0
:104C3000012101F0BDFF00B106462879C04300F014
:104C40000400204305D10198022101F0B1FF00B119
:104C500006462879C04300F00800204305D100989B
:104C6000002102F035F800B106462879C04300F073
:104C70001000204305D10098012102F029F800B16D
:104C800006462879C04300F02000044304D1009870
:104C9000022102F01DF800B916B10120BDE8FE8F17
:104CA0000020FBE74C4402582DE9F05F04000F465A
:104CB0007ED0DFF83882D8F8000000F00F00B8424C
:104CC0000CD2D8F8001021F00F013943C8F80010B9
:104CD000D8F8000000F00F00B84269D12078844D68
:104CE00040070AD52069296801F07001884204D97B
:104CF000296821F070010143296020787C4E361D1F
:104D000000070AD56069316801F07001884204D952
:104D1000316821F07001014331602078C0060AD566
:104D2000A069316801F4E061884204D9316821F456
:104D3000E061014331602078DFF8B4B180060BF107
:104D4000080B0CD5E1695846DBF8002002F0700230
:104D5000914204D9026822F070020A43026020786E
:104D600080070AD5E068296801F00F01884204D95C
:104D7000296821F00F01014329602078C0073ED047
:104D80005B49A2682868183920F4706010432860D5
:104D90006068022818D0032819D00968012819D0A2
:104DA000490700294ADADFF848A1AAF1080A00E019
:104DB00044E0DAF8002022F007020243CAF800209B
:104DC000FEF736FD814612E009688903E9E70968C4
:104DD0008901E6E7C905E4E7FEF72AFDA0EB090132
:104DE00041F28830814202D90320BDE8F09F61681A
:104DF000DAF8000000F03800B0EBC10FECD12078F9
:104E000080070AD5E068296801F00F01884204D2C2
:104E1000296821F00F0101432960D8F800104046AD
:104E200001F00F01B9420BD9016821F00F0139439C
:104E30000160006800F00F00B84201D00120D4E703
:104E4000207840070AD52069296801F0700188425E
:104E500004D2296821F070010143296020780007FD
:104E60000AD56069316801F07001884204D2316866
:104E700021F07001014331602078C0060AD5A06995
:104E8000316801F4E061884204D2316821F4E061C4
:104E900001433160207880060CD5E1695846DBF883
:104EA000002002F07002914204D2026822F07002E7
:104EB0000A43026000F06CF80E492A682B68C2F3BE
:104EC000032203F00F038A5CC95C02F01F0201F0A9
:104ED0001F01D040084A20FA01F11160074908601B
:104EE00007480068BDE8F05FFEF7DEBC0020005216
:104EF000184402588AE500084C00002048000020B1
:104F00004000002030B500F043F80B4A0B490C4B31
:104F100015681468C5F3032204F00F048A5C095D68
:104F200002F01F0201F01F01D040064A20FA01F1F1
:104F300019601060084630BD184402588AE5000820
:104F40004C0000204800002000B5FFF7DBFF0549BA
:104F50000968054AC1F30211515C01F01F01C84004
:104F600000BD00001C4402588AE5000800B5FFF7A8
:104F7000C9FF05490968054AC1F30221515C01F0E6
:104F80001F01C84000BD00001C4402588AE500080B
:104F9000454970B545480968434B103B11F038024C
:104FA00008D00111082A03D0102A0BD0182A0BD0E0
:104FB000084670BD19688906FBD51968C1F3C1019F
:104FC000C84070BD3A4870BD3749374D18310C1D87
:104FD00024350A68096826682D6802F0030406F083
:104FE0000102C1F30511C5F3CC0515FB02F200EE79
:104FF000102AB8EE400AE9B32F4ADFED2E0AB7EEC9
:10500000001A6CB1DFED2D1A012C01D0022C43D017
:1050100002EE101A1068F8EE422A81EEA22A1EE073
:105020001C68A40611D51B6801EE901A1168C3F321
:10503000C103F8EE612AD84001EE900AC1F30800DE
:10504000F8EE611A81EEA22A0BE001EE901ADFED74
:105050001C2A00BFF8EE611A106882EEA12AC0F384
:10506000080001EE900AF8EE611A40EE201A31EEC7
:10507000810A00E015E022EE000A1068C0F3462025
:10508000401C00EE900AF8EE600A80EE201ABCEE9A
:10509000C10A10EE100A70BD01EE901ADFED092A68
:1050A000D8E7002070BD0000104402580090D003E3
:1050B00040787D0100000039304402580024744AD1
:1050C0000024744C20BCBE4B2DE9F05F04007DD061
:1050D000FF4F2078FE4D1837DFF8F493103DC007DE
:1050E00048D0D9F80000396800F03800102815D0F1
:1050F000182803D101F0030002280FD06068B0F532
:10510000803F12D010B1B0F5A02F18D0286820F43D
:1051100080302860286820F4802009E02868800317
:1051200028D560680028D2D024E0286840F4803078
:105130002860606888B1FEF77BFB064609E02868B6
:1051400040F480202860F0E7FEF772FB801B6428A3
:105150006FD828688003F7D50CE0FEF769FB064698
:1051600005E000BFFEF764FB801B6428F0D82868C8
:105170008003F7D4207841F20308D54E0C3E800717
:1051800069D5D9F80000396810F038000ED0182819
:1051900001D188070AD0E06890B3296821F019018D
:1051A00001432960FEF744FB824631E0286840074E
:1051B00002D5E06800288AD0E168286820F019004C
:1051C00008432860FEF734FB824607E0DFE000BFBB
:1051D000FEF72EFBA0EB0A000228B9D8286840078A
:1051E000F6D500BFFEF71EFB40451BD820694028BE
:1051F00012D0316821F47C3141EA003030602AE07D
:1052000018E000BFFEF714FBA0EB0A0002289FD8AD
:1052100028684007F6D5E5E7306820F47C3040F494
:105220000030EBE7207C316821F0FE4141EA00606C
:10523000E4E70DE1286820F001002860FEF7F8FAA5
:10524000824605E0FEF7F4FAA0EB0A0002288DD8AA
:1052500028684007F6D42078C0065DD5D9F800004C
:10526000DFF86CB2396800F03800ABF1040B0828A5
:1052700010D0182803D101F0030001280AD0E069FA
:105280000028286838D040F080002860FEF7D0FA67
:10529000824623E02868C00523D5E069802876D1BE
:1052A0001FE0206A202821D0316821F0F84141EA2E
:1052B0008060306030E000BF94F82010DBF8002000
:1052C00022F07C5242EA0161CBF8001024E000BFDA
:1052D000FEF7AEFAA0EB0A00022898D82868C005AD
:1052E000F6D5FEF79FFA4045E6D8DAE7306820F0B9
:1052F000F84040F08040DCE720F080002860FEF7B6
:1053000097FA064605E000BFFEF792FA801B0228D6
:105310009DD82868C005F7D42078000729D56C48A7
:105320006169643000298046016811D041F00101B3
:105330000160FEF77DFA064605E000BFFEF778FA49
:10534000801B0228C9D8D8F800008007F6D510E0E5
:1053500021F001010160FEF76BFA064605E000BF8F
:10536000FEF766FA801B022872D8D8F80000800782
:10537000F6D42078800623D5A0690028286810D0AC
:1053800040F480502860FEF753FA064605E036E107
:10539000FEF74EFA801B02285AD828688004F7D5F9
:1053A0000EE020F480502860FEF742FA064604E042
:1053B000FEF73EFA801B02284AD828688004F7D4FA
:1053C000207840074FD5DFF80C81D8F8001041F461
:1053D0008071C8F80010FEF72BFA064605E000BF02
:1053E000FEF726FA801B642832D8D8F80000C005E2
:1053F000F6D5374EA068603601280AD008B10528D6
:1054000013D0306820F001003060306820F00400D4
:1054100002E0306840F001003060A06841F2883A54
:1054200090B1FEF705FA80460AE0306840F00400CB
:105430003060EEE7FEF7FCF9A0EB0801514507D814
:1054400030688007F6D50EE0FEF7F2F9804607E0F7
:1054500084E000BFFEF7ECF9A0EB080151457DD8D0
:1054600030688007F6D4606AB0B3DFF86480D9F89A
:10547000001008F120084FF6F87B08F10409C1F389
:10548000C2010329A8F1040A69D00228286820F083
:105490008070286003D0FEF7CBF9044684E0FEF765
:1054A000C7F9064605E000BFFEF7C2F9801B0228D7
:1054B00077D828688001F7D4E26A40F2F33138687F
:1054C00054F8283F884340EA02101843386004E04B
:1054D0001044025800480258B5E0217B4346228917
:1054E0004FF4FE0C208A4FF0FE474902267D521EE3
:1054F000401EA1F50071C2F308088AB2761E0CEABC
:10550000004042EA08020243504607EA06610A43A5
:105510001A60DAF8002022F00102CAF80020D9F857
:105520000020266A22EA0B0242EAC602C9F80020DD
:10553000DAF80010A26921F00C011143CAF800103A
:105540000168E26921F0020111430160016841F440
:1055500080310160016841F4003101E021E027E081
:105560000160016841F480210160016841F001019E
:105570000160286840F080702860FEF759F9044601
:1055800005E000BFFEF754F9001B022809D828687F
:105590008001F7D557E000BFFEF74AF9001B02284B
:1055A00002D90320BDE8F09F28688001F4D44AE0C6
:1055B00039680128D8F8000021D0A26A01F003035D
:1055C00093421CD1E26AC1F305118A4217D1216BC3
:1055D000C0F30802491E8A4211D1616BC0F3462212
:1055E000491E91420BD1A16BC0F30642491E914264
:1055F00005D1E16BC0F30660491E814201D0012054
:10560000D0E7A16C4E46D9F80000C0F3CC0081422F
:1056100019D0DAF80000554620F00100CAF8000061
:10562000FEF706F94FEA0007FEF702F9B842FBD091
:10563000A26C306820EA0B0040EAC20030602868A3
:1056400040F0010028600020ACE7704770477047C9
:10565000704770472DE9F84304460068E56A416BDE
:1056600009041BD5290719D5D4E90950202813D3DB
:105670000026206801F049FE020A2870010C6A70B9
:10568000030EA970761CEB70082E05F10405F0D30B
:10569000A06A2038C4E90950BDE8F883416B0127AE
:1056A000DFF8EC810026C90551D539024CF23A12D7
:1056B000816329072068C16B21EA0201C163206868
:1056C000C16B21F08051C1632068C16821F04001A5
:1056D000C16018D515F0220F09D0206801F056FDE1
:1056E00028B1616B014361632046FFF7B2FF216877
:1056F000AA07C1F8388084F83070E66223D12046CA
:1057000000F0C9F8C8E72806C6D5206815F0220FB2
:1057100086622068C6622068066509D0206801F0AC
:1057200035FD28B1616B014361632046FFF791FFAE
:1057300015F0300F84F83070E66202D0204600F099
:10574000AAF8A807A8D0204600F0A4F8A4E7416B67
:10575000490421D529071FD5D4E9075020289BD318
:10576000002628780090697840EA01200090A97806
:1057700040EA01400090E9782D1D40EA0160009068
:105780002068694601F0D8FD761C082EE9D3206A0E
:105790002038C4E907507FE7416B11F03A0F416BA5
:1057A00058D0890703D5616B41F002016163416BF9
:1057B000090703D5616B41F008016163416B8906FC
:1057C00003D5616B41F020016163416BC90603D5CC
:1057D000616B41F010016163C0F838802068C16BD3
:1057E00021F49D71C1632068C16821F04001C1604E
:1057F0002068C16A41F40051C1622068C16841F06B
:105800008001C160206801F0C1FC626B2B074FF47E
:10581000006140EA020060632068C26822F08002F2
:10582000C2602068816303D584F83070E6620DE0C1
:1058300028068BD5606B002888D02068C16B21F0CA
:105840008051C1632068066584F830702046FFF7F8
:1058500000FF21E7C9009ED54FF080518163206889
:10586000006D40074FEA856008D40028204602DA20
:10587000FFF7EEFE10E7FFF7E9FE0DE700282046F0
:1058800002DAFFF7E4FE07E7FFF7DFFE04E70000B8
:105890003A0F0018704770472DE9F047040029D0EF
:1058A000594A4FF000092068584B594D9042C4F8AE
:1058B000289006D0984204D0A84202D0E1680F296F
:1058C00018D8E1684FF0010AE76B0831C9080AEB04
:1058D00057167143904205D0984203D0A84201D098
:1058E000082907D8904203D0984201D0A84204D199
:1058F000102902D90120BDE8F08794F8810020B971
:10590000204684F8809000F085F8022084F8810019
:105910002068016821F0010101602068A1698268A6
:10592000B1F1806F02F4F81110D16268B2F5800F06
:1059300001D01AB10AE0A26B22B107E0A26BB2F16A
:10594000805F03D1026842F48052026060684002C6
:1059500009D5E068072806D32068236D026822F481
:1059600080721A4303E02068026822F480720260A9
:10597000A66AE069E26B25683043E3680A43104396
:105980001843A860D4E90D02D4E90581636A25694A
:105990001843D4F820C00A43266810432843A56D55
:1059A000D4E90172D4E9123140EA080040EA0C005F
:1059B00038430843104318432843F060606868B9CF
:1059C0002068816821F4C05141F400618160206841
:1059D000816821F4C06141F4806181602068016DBB
:1059E00021F0010101656068400206D52068626D02
:1059F000C16821F000411143C160C4F8849084F86B
:105A000081A0002077E7000000300140003800400E
:105A1000003C0040F0B5B7B00446142130A8FAF7B6
:105A2000A1FCC0216846FAF79DFC23492068884202
:105A300040D14114002019900446CDE90010684679
:105A4000FEF75CFC08B1FCF752F91C48016841F410
:105A500000510160006800F400503590174810387C
:105A6000016841F010010160006830AD0221144F5F
:105A700000F0100035904FF4B040052385E8130086
:105A800003223846CDE9332330A9FDF7ABFD0126CB
:105A90000C484FF400453095CDE9316430A933947A
:105AA000FDF7A0FD309530A9CDE931643846339437
:105AB000FDF798FD37B0F0BD00340140F0440258C6
:105AC00000100258000C02582DE9F84F994617466D
:105AD0008A460446FDF7ACFE064694F8810001288C
